:03000000020016E5
:0C001600787FE4F6D8FD75811102005DD2
:1001D000040A050706040210000002080000020ECF
:0201E000015EBE
:1001B100D3EF9400EE94004015E4FCFD0DBD000169
:0E01C1000CED647D4C70F5EF1F70E51E80E2C2
:0101CF00220D
:10018F007F027E001201B1740A2511F8E6F5800591
:10019F0011E51170020510640445107004F510F597
:0201AF0011221B
:100167007F027E001201B1740A2511F8E6F580E5D9
:1001770011151170021510E511B4FF0BE510B4FF4E
:0801870006751000751103223A
:1000A200D2AFD2A8D288D2AAD28AE4F58020B126D1
:1000B200C3E509950FE50E6480F8E5086480985061
:1000C2000D12018F0509E50970E3050880DF850E31
:1000D20008850F0980D720B0D1C3E4950FFBE495C2
:1000E2000EFAD3E5099BEA6480F8E508648098403B
:1000F2000D120167E509150970DC150880D88A0818
:040102008B0980D213
:03000300020106F1
:10010600C0E0C0D075D000C000C004C005C006C0A5
:1001160007D3E5099400E508648094804012E50958
:100126001509AE08700215084E600512016780EECB
:10013600C3E5086480948050130509E509AE08708C
:10014600020508144E600B12018F80ED75080075CC
:100156000900D007D006D005D004D000D0D0D0E01A
:010166003266
:03001300020006E2
:0700060075080075090032C6
:100022000200A2E493A3F8E493A34003F68001F252
:1000320008DFF48029E493A3F85407240CC8C333DF
:10004200C4540F4420C8834004F456800146F6DFAE
:10005200E4800B01020408102040809001D0E47E6D
:10006200019360BCA3FF543F30E509541FFEE493A3
:10007200A360010ECF54C025E060A840B8E493A36A
:10008200FAE493A3F8E493A3C8C582C8CAC583CA95
:10009200F0A3C8C582C8CAC583CADFE9DEE780BE4D
:0101E200001C
:00000001FF
